{
  "transactions": [
    {
      "hash": "0x3a5752a3948e02408182d83ff10f53107f90f6d37ceb0c45c8a92a11b94fbea5",
      "transactionType": "CALL",
      "contractName": null,
      "contractAddress": "0x99c9d5363ae49f264b2653b7c004008e0aef228a",
      "function": "registerRecipient(uint256,address,uint256,uint256,uint256,uint256[8])",
      "arguments": [
        "16534380172632001315362474538542388867852933317969103173821595018660439504939",
        "0xcc102e63Fb4A0E2f8Ef165bED1F4f0023A06Cb50",
        "315284242761318309840841872165791548918623250775964534469125558250947382327",
        "9324357668775665819333967089713829764129662028723051534063602399819206633574",
        "189141293257857992567546810400499439695207468529790118566128001959652082032",
        "[13995876615144274738231593517287063906619809604428847151845291761472511250988, 10370433082551693287655040011796737582491946636031535167335351254781355604496, 11580437265993454537418143377893621982187523335936544514004501595540298430852, 15267583508600431223217946483461770494921659747331883809573848598851540985012, 21197248923822971439051479116164534384944481981304289634715590126448738309862, 13218476971692843122540522488832810450022412558795274932188014035595147717207, 17416847221134574433340274574776488200421885176154977829293200384519378853759, 11173860305357422022453369639519529573495163424870634533005151444553270270155]"
      ],
      "transaction": {
        "from": "0x2a16909adbb7d9396b3a8e97fe6686ef774b02cf",
        "to": "0x99c9d5363ae49f264b2653b7c004008e0aef228a",
        "gas": "0x6ce57",
        "value": "0x0",
        "input": "0x784313c2248e20a6575ff095d6501d0ffba4e8b6497a2a6ddc17ceebb733309a270db82b000000000000000000000000cc102e63fb4a0e2f8ef165bed1f4f0023a06cb5000b271ce864f887de599455f230e75165c21b4de2540ceabaf04391d8a4a8c37149d6640298de2c18c5165c42640e55f1256f7673cb2a6aeb1f34a4b82ee2866006b0cd87ba68e7c0306f25145060771a0bde9dc620ec66574d151f09a75c1701ef162ac4065d66f0350c5ce93cda26e71f565fa3212789970d0c63dd4a1922c16ed7505c03cfc3125c816510430c125875179439d8901247519411fa997ba10199a4b9358c321c4bce0a23f9973d83ed768fccdf97ac6228d56a6e23b38798421c125628ff5e1bb5388c38f76da4bacd3eae19c8f98d30bc07139cc0c5ba4b42edd37bcdbe51f90397aa75f9fee1e5b25d53308122f9164568cf4b6432816e61d396490dc79a81ce2f7117e3baa40ab66beee1785c2011d67e47a245cedaa572681961061d4e6c0874d1a6ce4ba31952f60a0c15e0b7a7c83730d7e22a45f7f18b42e49b72d7beed7d4f9a10d28ca411077f2ed0fd8a7d8b14b6fc4c2eb98cb",
        "nonce": "0x3c",
        "chainId": "0xaa36a7"
      },
      "additionalContracts": [],
      "isFixedGasLimit": false
    }
  ],
  "receipts": [
    {
      "type": "0x2",
      "status": "0x1",
      "cumulativeGasUsed": "0x17e014f",
      "logs": [],
      "logsBloom": "0x00000000000000000000000000000000000000000000000000000000000000000000000000000000000000000000000000000000000000000000000000000000000000000000000000000000000000000000000000000000000000000000000000000000000000000000000000000000000000000000000000000000000000000000000000000000000000000000000000000000000000000000000000000000000000000000000000000000000000000000000000000000000000000000000000000000000000000000000000000000000000000000000000000000000000000000000000000000000000000000000000000000000000000000000000000000",
      "transactionHash": "0x3a5752a3948e02408182d83ff10f53107f90f6d37ceb0c45c8a92a11b94fbea5",
      "transactionIndex": "0xfc",
      "blockHash": "0xa5be3269fe9d4aeaf0a1eb5837f83a156e6a46c3851d1e78aab085d916208ee2",
      "blockNumber": "0xa8bc77",
      "gasUsed": "0x4ed6d",
      "effectiveGasPrice": "0x41ef65c0",
      "from": "0x2a16909adbb7d9396b3a8e97fe6686ef774b02cf",
      "to": "0x99c9d5363ae49f264b2653b7c004008e0aef228a",
      "contractAddress": null
    }
  ],
  "libraries": [],
  "pending": [],
  "returns": {},
  "timestamp": 1781439780007,
  "chain": 11155111,
  "commit": "a6c2de6"
}